{
  "_format": "hh-sol-artifact-1",
  "contractName": "Exchange",
  "sourceName": "contracts/Exchange.sol",
  "abi": [
    {
      "inputs": [
        {
          "internalType": "address",
          "name": "_feeAccount",
          "type": "address"
        },
        {
          "internalType": "uint256",
          "name": "_feePercent",
          "type": "uint256"
        }
      ],
      "stateMutability": "nonpayable",
      "type": "constructor"
    },
    {
      "anonymous": false,
      "inputs": [
        {
          "indexed": false,
          "internalType": "uint256",
          "name": "id",
          "type": "uint256"
        },
        {
          "indexed": false,
          "internalType": "address",
          "name": "user",
          "type": "address"
        },
        {
          "indexed": false,
          "internalType": "address",
          "name": "tokenGet",
          "type": "address"
        },
        {
          "indexed": false,
          "internalType": "uint256",
          "name": "amountGet",
          "type": "uint256"
        },
        {
          "indexed": false,
          "internalType": "address",
          "name": "tokenGive",
          "type": "address"
        },
        {
          "indexed": false,
          "internalType": "uint256",
          "name": "amountGive",
          "type": "uint256"
        },
        {
          "indexed": false,
          "internalType": "uint256",
          "name": "timestamp",
          "type": "uint256"
        }
      ],
      "name": "Cancel",
      "type": "event"
    },
    {
      "anonymous": false,
      "inputs": [
        {
          "indexed": false,
          "internalType": "address",
          "name": "token",
          "type": "address"
        },
        {
          "indexed": false,
          "internalType": "address",
          "name": "user",
          "type": "address"
        },
        {
          "indexed": false,
          "internalType": "uint256",
          "name": "amount",
          "type": "uint256"
        },
        {
          "indexed": false,
          "internalType": "uint256",
          "name": "balance",
          "type": "uint256"
        }
      ],
      "name": "Deposite",
      "type": "event"
    },
    {
      "anonymous": false,
      "inputs": [
        {
          "indexed": false,
          "internalType": "uint256",
          "name": "id",
          "type": "uint256"
        },
        {
          "indexed": false,
          "internalType": "address",
          "name": "user",
          "type": "address"
        },
        {
          "indexed": false,
          "internalType": "address",
          "name": "tokenGet",
          "type": "address"
        },
        {
          "indexed": false,
          "internalType": "uint256",
          "name": "amountGet",
          "type": "uint256"
        },
        {
          "indexed": false,
          "internalType": "address",
          "name": "tokenGive",
          "type": "address"
        },
        {
          "indexed": false,
          "internalType": "uint256",
          "name": "amountGive",
          "type": "uint256"
        },
        {
          "indexed": false,
          "internalType": "uint256",
          "name": "timestamp",
          "type": "uint256"
        }
      ],
      "name": "Order",
      "type": "event"
    },
    {
      "anonymous": false,
      "inputs": [
        {
          "indexed": false,
          "internalType": "uint256",
          "name": "id",
          "type": "uint256"
        },
        {
          "indexed": false,
          "internalType": "address",
          "name": "user",
          "type": "address"
        },
        {
          "indexed": false,
          "internalType": "address",
          "name": "tokenGet",
          "type": "address"
        },
        {
          "indexed": false,
          "internalType": "uint256",
          "name": "amountGet",
          "type": "uint256"
        },
        {
          "indexed": false,
          "internalType": "address",
          "name": "tokenGive",
          "type": "address"
        },
        {
          "indexed": false,
          "internalType": "uint256",
          "name": "amountGive",
          "type": "uint256"
        },
        {
          "indexed": false,
          "internalType": "address",
          "name": "userFill",
          "type": "address"
        },
        {
          "indexed": false,
          "internalType": "uint256",
          "name": "timestamp",
          "type": "uint256"
        }
      ],
      "name": "Trade",
      "type": "event"
    },
    {
      "anonymous": false,
      "inputs": [
        {
          "indexed": false,
          "internalType": "address",
          "name": "token",
          "type": "address"
        },
        {
          "indexed": false,
          "internalType": "address",
          "name": "user",
          "type": "address"
        },
        {
          "indexed": false,
          "internalType": "uint256",
          "name": "amount",
          "type": "uint256"
        },
        {
          "indexed": false,
          "internalType": "uint256",
          "name": "balance",
          "type": "uint256"
        }
      ],
      "name": "Withdraw",
      "type": "event"
    },
    {
      "stateMutability": "payable",
      "type": "fallback"
    },
    {
      "inputs": [
        {
          "internalType": "address",
          "name": "_token",
          "type": "address"
        },
        {
          "internalType": "address",
          "name": "_user",
          "type": "address"
        }
      ],
      "name": "balanceOf",
      "outputs": [
        {
          "internalType": "uint256",
          "name": "",
          "type": "uint256"
        }
      ],
      "stateMutability": "view",
      "type": "function"
    },
    {
      "inputs": [
        {
          "internalType": "uint256",
          "name": "_id",
          "type": "uint256"
        }
      ],
      "name": "cancelOrder",
      "outputs": [],
      "stateMutability": "nonpayable",
      "type": "function"
    },
    {
      "inputs": [
        {
          "internalType": "address",
          "name": "_ether",
          "type": "address"
        }
      ],
      "name": "depositeEther",
      "outputs": [],
      "stateMutability": "payable",
      "type": "function"
    },
    {
      "inputs": [
        {
          "internalType": "address",
          "name": "_token",
          "type": "address"
        },
        {
          "internalType": "uint256",
          "name": "_amount",
          "type": "uint256"
        }
      ],
      "name": "depositeToken",
      "outputs": [],
      "stateMutability": "nonpayable",
      "type": "function"
    },
    {
      "inputs": [],
      "name": "feeAccount",
      "outputs": [
        {
          "internalType": "address",
          "name": "",
          "type": "address"
        }
      ],
      "stateMutability": "view",
      "type": "function"
    },
    {
      "inputs": [],
      "name": "feePercent",
      "outputs": [
        {
          "internalType": "uint256",
          "name": "",
          "type": "uint256"
        }
      ],
      "stateMutability": "view",
      "type": "function"
    },
    {
      "inputs": [
        {
          "internalType": "uint256",
          "name": "_id",
          "type": "uint256"
        }
      ],
      "name": "fillOrder",
      "outputs": [],
      "stateMutability": "nonpayable",
      "type": "function"
    },
    {
      "inputs": [
        {
          "internalType": "address",
          "name": "_tokenGet",
          "type": "address"
        },
        {
          "internalType": "uint256",
          "name": "_amountGet",
          "type": "uint256"
        },
        {
          "internalType": "address",
          "name": "_tokenGive",
          "type": "address"
        },
        {
          "internalType": "uint256",
          "name": "_amountGive",
          "type": "uint256"
        }
      ],
      "name": "makeOrder",
      "outputs": [],
      "stateMutability": "nonpayable",
      "type": "function"
    },
    {
      "inputs": [
        {
          "internalType": "uint256",
          "name": "",
          "type": "uint256"
        }
      ],
      "name": "orderCancelled",
      "outputs": [
        {
          "internalType": "bool",
          "name": "",
          "type": "bool"
        }
      ],
      "stateMutability": "view",
      "type": "function"
    },
    {
      "inputs": [],
      "name": "orderCount",
      "outputs": [
        {
          "internalType": "uint256",
          "name": "",
          "type": "uint256"
        }
      ],
      "stateMutability": "view",
      "type": "function"
    },
    {
      "inputs": [
        {
          "internalType": "uint256",
          "name": "",
          "type": "uint256"
        }
      ],
      "name": "orderFilled",
      "outputs": [
        {
          "internalType": "bool",
          "name": "",
          "type": "bool"
        }
      ],
      "stateMutability": "view",
      "type": "function"
    },
    {
      "inputs": [
        {
          "internalType": "uint256",
          "name": "",
          "type": "uint256"
        }
      ],
      "name": "orders",
      "outputs": [
        {
          "internalType": "uint256",
          "name": "id",
          "type": "uint256"
        },
        {
          "internalType": "address",
          "name": "user",
          "type": "address"
        },
        {
          "internalType": "address",
          "name": "tokenGet",
          "type": "address"
        },
        {
          "internalType": "uint256",
          "name": "amountGet",
          "type": "uint256"
        },
        {
          "internalType": "address",
          "name": "tokenGive",
          "type": "address"
        },
        {
          "internalType": "uint256",
          "name": "amountGive",
          "type": "uint256"
        },
        {
          "internalType": "uint256",
          "name": "timestamp",
          "type": "uint256"
        }
      ],
      "stateMutability": "view",
      "type": "function"
    },
    {
      "inputs": [
        {
          "internalType": "address",
          "name": "",
          "type": "address"
        },
        {
          "internalType": "address",
          "name": "",
          "type": "address"
        }
      ],
      "name": "tokens",
      "outputs": [
        {
          "internalType": "uint256",
          "name": "",
          "type": "uint256"
        }
      ],
      "stateMutability": "view",
      "type": "function"
    },
    {
      "inputs": [
        {
          "internalType": "uint256",
          "name": "_amount",
          "type": "uint256"
        },
        {
          "internalType": "address",
          "name": "_ether",
          "type": "address"
        }
      ],
      "name": "withdrawEther",
      "outputs": [],
      "stateMutability": "nonpayable",
      "type": "function"
    },
    {
      "inputs": [
        {
          "internalType": "address",
          "name": "_token",
          "type": "address"
        },
        {
          "internalType": "uint256",
          "name": "_amount",
          "type": "uint256"
        }
      ],
      "name": "withdrawTokens",
      "outputs": [],
      "stateMutability": "nonpayable",
      "type": "function"
    },
    {
      "stateMutability": "payable",
      "type": "receive"
    }
  ],
  "bytecode": "0x608060405234801561001057600080fd5b50604051610f58380380610f5883398101604081905261002f91610058565b600080546001600160a01b0319166001600160a01b039390931692909217909155600155610090565b6000806040838503121561006a578182fd5b82516001600160a01b0381168114610080578283fd5b6020939093015192949293505050565b610eb98061009f6000396000f3fe6080604052600436106100e05760003560e01c806367b830ad11610084578063a85c38ef11610056578063a85c38ef1461028b578063ce56c45414610305578063e9c1896614610325578063f7888aec1461035557005b806367b830ad146102155780637fd6f15c1461023557806391dc842e1461024b5780639a5c90aa1461026b57005b80634a93e0da116100bd5780634a93e0da14610145578063508493bc14610185578063514fcac7146101bd57806365e17c9d146101dd57005b806306b091f9146100e957806308dcaa26146101095780632453ffa81461011c57005b366100e757005b005b3480156100f557600080fd5b506100e7610104366004610cb7565b61039b565b6100e7610117366004610c6b565b6104fe565b34801561012857600080fd5b5061013260065481565b6040519081526020015b60405180910390f35b34801561015157600080fd5b50610175610160366004610d43565b60056020526000908152604090205460ff1681565b604051901515815260200161013c565b34801561019157600080fd5b506101326101a0366004610c85565b600260209081526000928352604080842090915290825290205481565b3480156101c957600080fd5b506100e76101d8366004610d43565b610592565b3480156101e957600080fd5b506000546101fd906001600160a01b031681565b6040516001600160a01b03909116815260200161013c565b34801561022157600080fd5b506100e7610230366004610d43565b610640565b34801561024157600080fd5b5061013260015481565b34801561025757600080fd5b506100e7610266366004610cb7565b6106fa565b34801561027757600080fd5b506100e7610286366004610ce0565b61080a565b34801561029757600080fd5b506102f26102a6366004610d43565b6003602081905260009182526040909120805460018201546002830154938301546004840154600585015460069095015493956001600160a01b03938416959084169492939091169187565b60405161013c9796959493929190610da6565b34801561031157600080fd5b506100e7610320366004610d5b565b61091e565b34801561033157600080fd5b50610175610340366004610d43565b60046020526000908152604090205460ff1681565b34801561036157600080fd5b50610132610370366004610c85565b6001600160a01b03918216600090815260026020908152604080832093909416825291909152205490565b6001600160a01b03821660009081526002602090815260408083203384529091529020548111156103cb57600080fd5b6001600160a01b03821660009081526002602090815260408083203384529091529020546103f99082610a27565b6001600160a01b03831660008181526002602090815260408083203380855292529182902093909355516302ccb1b360e41b815260048101929092526024820183905290632ccb1b3090604401602060405180830381600087803b15801561046057600080fd5b505af1158015610474573d6000803e3d6000fd5b505050506040513d601f19601f820116820180604052508101906104989190610d23565b506001600160a01b0382166000908152600260209081526040808320338085529252918290205491517ff341246adaac6f497bc2a656f546ab9e182111d630394f0c57c710a59a2cb567926104f292869290918691610d7d565b60405180910390a15050565b6001600160a01b038116600090815260026020908152604080832033845290915290205461052c9034610a3a565b6001600160a01b03821660009081526002602090815260408083203380855292529182902083905590517fde25e4c6f66e4612a5e2b117209ca677c8c6fbb2e17252fc581ada94f53eda4c9261058792859290913491610d7d565b60405180910390a150565b600081815260036020526040902060018101546001600160a01b031633146105b957600080fd5b805482146105c657600080fd5b600082815260046020819052604091829020805460ff19166001179055825460028401546003850154928501546005860154600687015495517f77de1da0be5f2d3b110d05c6694e5c4ff2d9da7cd23d84353ecf78c7b5acec61966104f29633956001600160a01b03908116959194911692909190610da6565b60008111801561065257506006548111155b61065b57600080fd5b60008181526004602052604090205460ff161561067757600080fd5b60008181526005602052604090205460ff161561069357600080fd5b6000818152600360208190526040909120805460018201546002830154938301546004840154600585015494956106de956001600160a01b0394851694918216939290911690610a46565b506000908152600560205260409020805460ff19166001179055565b6040516323b872dd60e01b8152336004820152306024820152604481018290526001600160a01b038316906323b872dd90606401602060405180830381600087803b15801561074857600080fd5b505af115801561075c573d6000803e3d6000fd5b505050506040513d601f19601f820116820180604052508101906107809190610d23565b506001600160a01b03821660009081526002602090815260408083203384529091529020546107af9082610a3a565b6001600160a01b03831660009081526002602090815260408083203380855292529182902083905590517fde25e4c6f66e4612a5e2b117209ca677c8c6fbb2e17252fc581ada94f53eda4c926104f292869290918691610d7d565b6006805490600061081a83610e52565b90915550506040805160e081018252600680548083523360208085018281526001600160a01b038b8116878901908152606088018c81528b831660808a0190815260a08a018c81524260c08c0181815260009a8b52600398899052998d90209b518c55955160018c0180549187166001600160a01b0319928316179055935160028c0180549187169186169190911790559151958a0195909555935160048901805491909316911617905590516005860155915193830193909355905492517f9d33853d43e3607b4cc01fdc78338ff2dca6fef7db9232dae6d3eb55fbc3b1099361091093909290918991899189918991610da6565b60405180910390a150505050565b6001600160a01b038116600090815260026020908152604080832033845290915290205482111561094e57600080fd5b6001600160a01b038116600090815260026020908152604080832033845290915290205461097c9083610a27565b6001600160a01b038216600090815260026020908152604080832033808552925280832093909355915184156108fc0291859190818181858888f193505050501580156109cd573d6000803e3d6000fd5b506001600160a01b0381166000908152600260209081526040808320338085529252918290205491517ff341246adaac6f497bc2a656f546ab9e182111d630394f0c57c710a59a2cb567926104f292859290918791610d7d565b6000610a338284610e3b565b9392505050565b6000610a338284610de4565b6000610a686064610a6260015485610c3790919063ffffffff16565b90610c43565b9050610aa1610a778583610a3a565b6001600160a01b038716600090815260026020908152604080832033845290915290205490610a27565b6001600160a01b0386811660009081526002602090815260408083203384529091528082209390935590881681522054610adb9085610a3a565b6001600160a01b0386811660009081526002602090815260408083208b8516845290915280822093909355805490911681522054610b199082610a3a565b6001600160a01b0380871660009081526002602081815260408084208454861685528252808420959095558784168352908152838220928a168252919091522054610b649083610a27565b6001600160a01b038481166000908152600260209081526040808320938b16835292905281812092909255338252902054610b9f9083610a3a565b6001600160a01b03848116600081815260026020908152604080832033808552908352928190209590955584518c81528b8516918101919091529289168385015260608301889052608083019190915260a0820185905260c08201524260e082015290517f0dddf4182dc0fc1a311cb75f049c97403c6b8a99cf6b2229a36e7c526acb3f81918190036101000190a150505050505050565b6000610a338284610e1c565b6000610a338284610dfc565b80356001600160a01b0381168114610c6657600080fd5b919050565b600060208284031215610c7c578081fd5b610a3382610c4f565b60008060408385031215610c97578081fd5b610ca083610c4f565b9150610cae60208401610c4f565b90509250929050565b60008060408385031215610cc9578182fd5b610cd283610c4f565b946020939093013593505050565b60008060008060808587031215610cf5578182fd5b610cfe85610c4f565b935060208501359250610d1360408601610c4f565b9396929550929360600135925050565b600060208284031215610d34578081fd5b81518015158114610a33578182fd5b600060208284031215610d54578081fd5b5035919050565b60008060408385031215610d6d578182fd5b82359150610cae60208401610c4f565b6001600160a01b0394851681529290931660208301526040820152606081019190915260800190565b9687526001600160a01b03958616602088015293851660408701526060860192909252909216608084015260a083019190915260c082015260e00190565b60008219821115610df757610df7610e6d565b500190565b600082610e1757634e487b7160e01b81526012600452602481fd5b500490565b6000816000190483118215151615610e3657610e36610e6d565b500290565b600082821015610e4d57610e4d610e6d565b500390565b6000600019821415610e6657610e66610e6d565b5060010190565b634e487b7160e01b600052601160045260246000fdfea2646970667358221220027e75416eda09aa996d80fbacd4835259a987870ed2c1caa44f8cfb5c57b79164736f6c63430008040033",
  "linkReferences": {},
  "deployedLinkReferences": {}
}