{
  "_format": "hh-sol-artifact-1",
  "contractName": "Exchange",
  "sourceName": "contracts/Exchange.sol",
  "abi": [
    {
      "inputs": [
        {
          "internalType": "address",
          "name": "_feeAccount",
          "type": "address"
        },
        {
          "internalType": "uint256",
          "name": "_feePercent",
          "type": "uint256"
        }
      ],
      "stateMutability": "nonpayable",
      "type": "constructor"
    },
    {
      "anonymous": false,
      "inputs": [
        {
          "indexed": false,
          "internalType": "uint256",
          "name": "id",
          "type": "uint256"
        },
        {
          "indexed": false,
          "internalType": "address",
          "name": "user",
          "type": "address"
        },
        {
          "indexed": false,
          "internalType": "address",
          "name": "tokenGet",
          "type": "address"
        },
        {
          "indexed": false,
          "internalType": "uint256",
          "name": "amountGet",
          "type": "uint256"
        },
        {
          "indexed": false,
          "internalType": "address",
          "name": "tokenGive",
          "type": "address"
        },
        {
          "indexed": false,
          "internalType": "uint256",
          "name": "amountGive",
          "type": "uint256"
        },
        {
          "indexed": false,
          "internalType": "uint256",
          "name": "timestamp",
          "type": "uint256"
        }
      ],
      "name": "Cancel",
      "type": "event"
    },
    {
      "anonymous": false,
      "inputs": [
        {
          "indexed": false,
          "internalType": "address",
          "name": "token",
          "type": "address"
        },
        {
          "indexed": false,
          "internalType": "address",
          "name": "user",
          "type": "address"
        },
        {
          "indexed": false,
          "internalType": "uint256",
          "name": "amount",
          "type": "uint256"
        },
        {
          "indexed": false,
          "internalType": "uint256",
          "name": "balance",
          "type": "uint256"
        }
      ],
      "name": "Deposite",
      "type": "event"
    },
    {
      "anonymous": false,
      "inputs": [
        {
          "indexed": false,
          "internalType": "uint256",
          "name": "id",
          "type": "uint256"
        },
        {
          "indexed": false,
          "internalType": "address",
          "name": "user",
          "type": "address"
        },
        {
          "indexed": false,
          "internalType": "address",
          "name": "tokenGet",
          "type": "address"
        },
        {
          "indexed": false,
          "internalType": "uint256",
          "name": "amountGet",
          "type": "uint256"
        },
        {
          "indexed": false,
          "internalType": "address",
          "name": "tokenGive",
          "type": "address"
        },
        {
          "indexed": false,
          "internalType": "uint256",
          "name": "amountGive",
          "type": "uint256"
        },
        {
          "indexed": false,
          "internalType": "uint256",
          "name": "timestamp",
          "type": "uint256"
        }
      ],
      "name": "Order",
      "type": "event"
    },
    {
      "anonymous": false,
      "inputs": [
        {
          "indexed": false,
          "internalType": "uint256",
          "name": "id",
          "type": "uint256"
        },
        {
          "indexed": false,
          "internalType": "address",
          "name": "user",
          "type": "address"
        },
        {
          "indexed": false,
          "internalType": "address",
          "name": "tokenGet",
          "type": "address"
        },
        {
          "indexed": false,
          "internalType": "uint256",
          "name": "amountGet",
          "type": "uint256"
        },
        {
          "indexed": false,
          "internalType": "address",
          "name": "tokenGive",
          "type": "address"
        },
        {
          "indexed": false,
          "internalType": "uint256",
          "name": "amountGive",
          "type": "uint256"
        },
        {
          "indexed": false,
          "internalType": "address",
          "name": "userFill",
          "type": "address"
        },
        {
          "indexed": false,
          "internalType": "uint256",
          "name": "timestamp",
          "type": "uint256"
        }
      ],
      "name": "Trade",
      "type": "event"
    },
    {
      "anonymous": false,
      "inputs": [
        {
          "indexed": false,
          "internalType": "address",
          "name": "token",
          "type": "address"
        },
        {
          "indexed": false,
          "internalType": "address",
          "name": "user",
          "type": "address"
        },
        {
          "indexed": false,
          "internalType": "uint256",
          "name": "amount",
          "type": "uint256"
        },
        {
          "indexed": false,
          "internalType": "uint256",
          "name": "balance",
          "type": "uint256"
        }
      ],
      "name": "Withdraw",
      "type": "event"
    },
    {
      "stateMutability": "payable",
      "type": "fallback"
    },
    {
      "inputs": [
        {
          "internalType": "address",
          "name": "_token",
          "type": "address"
        },
        {
          "internalType": "address",
          "name": "_user",
          "type": "address"
        }
      ],
      "name": "balanceOf",
      "outputs": [
        {
          "internalType": "uint256",
          "name": "",
          "type": "uint256"
        }
      ],
      "stateMutability": "view",
      "type": "function"
    },
    {
      "inputs": [
        {
          "internalType": "uint256",
          "name": "_id",
          "type": "uint256"
        }
      ],
      "name": "cancelOrder",
      "outputs": [],
      "stateMutability": "nonpayable",
      "type": "function"
    },
    {
      "inputs": [
        {
          "internalType": "address",
          "name": "_ether",
          "type": "address"
        }
      ],
      "name": "depositeEther",
      "outputs": [],
      "stateMutability": "payable",
      "type": "function"
    },
    {
      "inputs": [
        {
          "internalType": "address",
          "name": "_token",
          "type": "address"
        },
        {
          "internalType": "uint256",
          "name": "_amount",
          "type": "uint256"
        }
      ],
      "name": "depositeToken",
      "outputs": [],
      "stateMutability": "nonpayable",
      "type": "function"
    },
    {
      "inputs": [],
      "name": "feeAccount",
      "outputs": [
        {
          "internalType": "address",
          "name": "",
          "type": "address"
        }
      ],
      "stateMutability": "view",
      "type": "function"
    },
    {
      "inputs": [],
      "name": "feePercent",
      "outputs": [
        {
          "internalType": "uint256",
          "name": "",
          "type": "uint256"
        }
      ],
      "stateMutability": "view",
      "type": "function"
    },
    {
      "inputs": [
        {
          "internalType": "uint256",
          "name": "_id",
          "type": "uint256"
        }
      ],
      "name": "fillOrder",
      "outputs": [],
      "stateMutability": "nonpayable",
      "type": "function"
    },
    {
      "inputs": [
        {
          "internalType": "address",
          "name": "_tokenGet",
          "type": "address"
        },
        {
          "internalType": "uint256",
          "name": "_amountGet",
          "type": "uint256"
        },
        {
          "internalType": "address",
          "name": "_tokenGive",
          "type": "address"
        },
        {
          "internalType": "uint256",
          "name": "_amountGive",
          "type": "uint256"
        }
      ],
      "name": "makeOrder",
      "outputs": [],
      "stateMutability": "nonpayable",
      "type": "function"
    },
    {
      "inputs": [
        {
          "internalType": "uint256",
          "name": "",
          "type": "uint256"
        }
      ],
      "name": "orderCancelled",
      "outputs": [
        {
          "internalType": "bool",
          "name": "",
          "type": "bool"
        }
      ],
      "stateMutability": "view",
      "type": "function"
    },
    {
      "inputs": [],
      "name": "orderCount",
      "outputs": [
        {
          "internalType": "uint256",
          "name": "",
          "type": "uint256"
        }
      ],
      "stateMutability": "view",
      "type": "function"
    },
    {
      "inputs": [
        {
          "internalType": "uint256",
          "name": "",
          "type": "uint256"
        }
      ],
      "name": "orderFilled",
      "outputs": [
        {
          "internalType": "bool",
          "name": "",
          "type": "bool"
        }
      ],
      "stateMutability": "view",
      "type": "function"
    },
    {
      "inputs": [
        {
          "internalType": "uint256",
          "name": "",
          "type": "uint256"
        }
      ],
      "name": "orders",
      "outputs": [
        {
          "internalType": "uint256",
          "name": "id",
          "type": "uint256"
        },
        {
          "internalType": "address",
          "name": "user",
          "type": "address"
        },
        {
          "internalType": "address",
          "name": "tokenGet",
          "type": "address"
        },
        {
          "internalType": "uint256",
          "name": "amountGet",
          "type": "uint256"
        },
        {
          "internalType": "address",
          "name": "tokenGive",
          "type": "address"
        },
        {
          "internalType": "uint256",
          "name": "amountGive",
          "type": "uint256"
        },
        {
          "internalType": "uint256",
          "name": "timestamp",
          "type": "uint256"
        }
      ],
      "stateMutability": "view",
      "type": "function"
    },
    {
      "inputs": [
        {
          "internalType": "address",
          "name": "",
          "type": "address"
        },
        {
          "internalType": "address",
          "name": "",
          "type": "address"
        }
      ],
      "name": "tokens",
      "outputs": [
        {
          "internalType": "uint256",
          "name": "",
          "type": "uint256"
        }
      ],
      "stateMutability": "view",
      "type": "function"
    },
    {
      "inputs": [
        {
          "internalType": "uint256",
          "name": "_amount",
          "type": "uint256"
        },
        {
          "internalType": "address",
          "name": "_ether",
          "type": "address"
        }
      ],
      "name": "withdrawEther",
      "outputs": [],
      "stateMutability": "nonpayable",
      "type": "function"
    },
    {
      "inputs": [
        {
          "internalType": "address",
          "name": "_token",
          "type": "address"
        },
        {
          "internalType": "uint256",
          "name": "_amount",
          "type": "uint256"
        }
      ],
      "name": "withdrawTokens",
      "outputs": [],
      "stateMutability": "nonpayable",
      "type": "function"
    },
    {
      "stateMutability": "payable",
      "type": "receive"
    }
  ],
  "bytecode": "0x608060405234801561001057600080fd5b5060405161101538038061101583398101604081905261002f91610058565b600080546001600160a01b0319166001600160a01b039390931692909217909155600155610090565b6000806040838503121561006a578182fd5b82516001600160a01b0381168114610080578283fd5b6020939093015192949293505050565b610f768061009f6000396000f3fe6080604052600436106100e05760003560e01c806367b830ad11610084578063a85c38ef11610056578063a85c38ef1461028b578063ce56c45414610305578063e9c1896614610325578063f7888aec1461035557005b806367b830ad146102155780637fd6f15c1461023557806391dc842e1461024b5780639a5c90aa1461026b57005b80634a93e0da116100bd5780634a93e0da14610145578063508493bc14610185578063514fcac7146101bd57806365e17c9d146101dd57005b806306b091f9146100e957806308dcaa26146101095780632453ffa81461011c57005b366100e757005b005b3480156100f557600080fd5b506100e7610104366004610d74565b61039b565b6100e7610117366004610d28565b6104fe565b34801561012857600080fd5b5061013260065481565b6040519081526020015b60405180910390f35b34801561015157600080fd5b50610175610160366004610e00565b60056020526000908152604090205460ff1681565b604051901515815260200161013c565b34801561019157600080fd5b506101326101a0366004610d42565b600260209081526000928352604080842090915290825290205481565b3480156101c957600080fd5b506100e76101d8366004610e00565b610592565b3480156101e957600080fd5b506000546101fd906001600160a01b031681565b6040516001600160a01b03909116815260200161013c565b34801561022157600080fd5b506100e7610230366004610e00565b610640565b34801561024157600080fd5b5061013260015481565b34801561025757600080fd5b506100e7610266366004610d74565b6106fa565b34801561027757600080fd5b506100e7610286366004610d9d565b61080a565b34801561029757600080fd5b506102f26102a6366004610e00565b6003602081905260009182526040909120805460018201546002830154938301546004840154600585015460069095015493956001600160a01b03938416959084169492939091169187565b60405161013c9796959493929190610e63565b34801561031157600080fd5b506100e7610320366004610e18565b61091e565b34801561033157600080fd5b50610175610340366004610e00565b60046020526000908152604090205460ff1681565b34801561036157600080fd5b50610132610370366004610d42565b6001600160a01b03918216600090815260026020908152604080832093909416825291909152205490565b6001600160a01b03821660009081526002602090815260408083203384529091529020548111156103cb57600080fd5b6001600160a01b03821660009081526002602090815260408083203384529091529020546103f99082610a27565b6001600160a01b03831660008181526002602090815260408083203380855292529182902093909355516302ccb1b360e41b815260048101929092526024820183905290632ccb1b3090604401602060405180830381600087803b15801561046057600080fd5b505af1158015610474573d6000803e3d6000fd5b505050506040513d601f19601f820116820180604052508101906104989190610de0565b506001600160a01b0382166000908152600260209081526040808320338085529252918290205491517ff341246adaac6f497bc2a656f546ab9e182111d630394f0c57c710a59a2cb567926104f292869290918691610e3a565b60405180910390a15050565b6001600160a01b038116600090815260026020908152604080832033845290915290205461052c9034610a3a565b6001600160a01b03821660009081526002602090815260408083203380855292529182902083905590517fde25e4c6f66e4612a5e2b117209ca677c8c6fbb2e17252fc581ada94f53eda4c9261058792859290913491610e3a565b60405180910390a150565b600081815260036020526040902060018101546001600160a01b031633146105b957600080fd5b805482146105c657600080fd5b600082815260046020819052604091829020805460ff19166001179055825460028401546003850154928501546005860154600687015495517f77de1da0be5f2d3b110d05c6694e5c4ff2d9da7cd23d84353ecf78c7b5acec61966104f29633956001600160a01b03908116959194911692909190610e63565b60008111801561065257506006548111155b61065b57600080fd5b60008181526004602052604090205460ff161561067757600080fd5b60008181526005602052604090205460ff161561069357600080fd5b6000818152600360208190526040909120805460018201546002830154938301546004840154600585015494956106de956001600160a01b0394851694918216939290911690610a46565b506000908152600560205260409020805460ff19166001179055565b6040516323b872dd60e01b8152336004820152306024820152604481018290526001600160a01b038316906323b872dd90606401602060405180830381600087803b15801561074857600080fd5b505af115801561075c573d6000803e3d6000fd5b505050506040513d601f19601f820116820180604052508101906107809190610de0565b506001600160a01b03821660009081526002602090815260408083203384529091529020546107af9082610a3a565b6001600160a01b03831660009081526002602090815260408083203380855292529182902083905590517fde25e4c6f66e4612a5e2b117209ca677c8c6fbb2e17252fc581ada94f53eda4c926104f292869290918691610e3a565b6006805490600061081a83610f0f565b90915550506040805160e081018252600680548083523360208085018281526001600160a01b038b8116878901908152606088018c81528b831660808a0190815260a08a018c81524260c08c0181815260009a8b52600398899052998d90209b518c55955160018c0180549187166001600160a01b0319928316179055935160028c0180549187169186169190911790559151958a0195909555935160048901805491909316911617905590516005860155915193830193909355905492517f9d33853d43e3607b4cc01fdc78338ff2dca6fef7db9232dae6d3eb55fbc3b1099361091093909290918991899189918991610e63565b60405180910390a150505050565b6001600160a01b038116600090815260026020908152604080832033845290915290205482111561094e57600080fd5b6001600160a01b038116600090815260026020908152604080832033845290915290205461097c9083610a27565b6001600160a01b038216600090815260026020908152604080832033808552925280832093909355915184156108fc0291859190818181858888f193505050501580156109cd573d6000803e3d6000fd5b506001600160a01b0381166000908152600260209081526040808320338085529252918290205491517ff341246adaac6f497bc2a656f546ab9e182111d630394f0c57c710a59a2cb567926104f292859290918791610e3a565b6000610a338284610ef8565b9392505050565b6000610a338284610ea1565b6000610a686064610a6260015485610c8b90919063ffffffff16565b90610c97565b9050610aa1610a778583610a3a565b6001600160a01b038716600090815260026020908152604080832033845290915290205490610a27565b6001600160a01b0386811660009081526002602090815260408083203384529091528082209390935590881681522054610adb9085610a3a565b6001600160a01b0386811660009081526002602090815260408083208b8516845290915280822093909355805490911681522054610b199082610a3a565b6001600160a01b0380871660009081526002602081815260408084208454861685528252808420959095558784168352908152838220928a168252919091522054610b649083610a27565b6001600160a01b038481166000908152600260209081526040808320938b16835292905281812092909255338252902054610b9f9083610a3a565b6001600160a01b0380851660009081526002602081815260408084203380865290835281852096909655938a16835290815282822093825292909252902054610be790610ca3565b6001600160a01b038084166000908152600260209081526040808320938a1683529290522054610c1690610ca3565b604080518881526001600160a01b03888116602083015287811682840152606082018790528516608082015260a081018490523360c08201524260e082015290517f0dddf4182dc0fc1a311cb75f049c97403c6b8a99cf6b2229a36e7c526acb3f81918190036101000190a150505050505050565b6000610a338284610ed9565b6000610a338284610eb9565b610ce881604051602401610cb991815260200190565b60408051601f198184030181529190526020810180516001600160e01b031663f5b1bba960e01b179052610ceb565b50565b80516a636f6e736f6c652e6c6f67602083016000808483855afa5050505050565b80356001600160a01b0381168114610d2357600080fd5b919050565b600060208284031215610d39578081fd5b610a3382610d0c565b60008060408385031215610d54578081fd5b610d5d83610d0c565b9150610d6b60208401610d0c565b90509250929050565b60008060408385031215610d86578182fd5b610d8f83610d0c565b946020939093013593505050565b60008060008060808587031215610db2578182fd5b610dbb85610d0c565b935060208501359250610dd060408601610d0c565b9396929550929360600135925050565b600060208284031215610df1578081fd5b81518015158114610a33578182fd5b600060208284031215610e11578081fd5b5035919050565b60008060408385031215610e2a578182fd5b82359150610d6b60208401610d0c565b6001600160a01b0394851681529290931660208301526040820152606081019190915260800190565b9687526001600160a01b03958616602088015293851660408701526060860192909252909216608084015260a083019190915260c082015260e00190565b60008219821115610eb457610eb4610f2a565b500190565b600082610ed457634e487b7160e01b81526012600452602481fd5b500490565b6000816000190483118215151615610ef357610ef3610f2a565b500290565b600082821015610f0a57610f0a610f2a565b500390565b6000600019821415610f2357610f23610f2a565b5060010190565b634e487b7160e01b600052601160045260246000fdfea264697066735822122074700bb7d0e97e876527fbcd5392b7c4ac970961586c2af26c5ceba0b6f689a664736f6c63430008040033",
  "linkReferences": {},
  "deployedLinkReferences": {}
}