{
  "_format": "hh-sol-artifact-1",
  "contractName": "Token",
  "sourceName": "contracts/Token.sol",
  "abi": [
    {
      "inputs": [],
      "stateMutability": "nonpayable",
      "type": "constructor"
    },
    {
      "anonymous": false,
      "inputs": [
        {
          "indexed": true,
          "internalType": "address",
          "name": "approver",
          "type": "address"
        },
        {
          "indexed": true,
          "internalType": "address",
          "name": "spender",
          "type": "address"
        },
        {
          "indexed": true,
          "internalType": "uint256",
          "name": "amount",
          "type": "uint256"
        }
      ],
      "name": "Approval",
      "type": "event"
    },
    {
      "anonymous": false,
      "inputs": [
        {
          "indexed": true,
          "internalType": "address",
          "name": "from",
          "type": "address"
        },
        {
          "indexed": true,
          "internalType": "address",
          "name": "to",
          "type": "address"
        },
        {
          "indexed": false,
          "internalType": "uint256",
          "name": "amout",
          "type": "uint256"
        }
      ],
      "name": "Transfer",
      "type": "event"
    },
    {
      "inputs": [
        {
          "internalType": "address",
          "name": "",
          "type": "address"
        },
        {
          "internalType": "address",
          "name": "",
          "type": "address"
        }
      ],
      "name": "allowance",
      "outputs": [
        {
          "internalType": "uint256",
          "name": "",
          "type": "uint256"
        }
      ],
      "stateMutability": "view",
      "type": "function"
    },
    {
      "inputs": [
        {
          "internalType": "address",
          "name": "_spender",
          "type": "address"
        },
        {
          "internalType": "uint256",
          "name": "_amount",
          "type": "uint256"
        }
      ],
      "name": "approve",
      "outputs": [
        {
          "internalType": "bool",
          "name": "success",
          "type": "bool"
        }
      ],
      "stateMutability": "nonpayable",
      "type": "function"
    },
    {
      "inputs": [
        {
          "internalType": "address",
          "name": "",
          "type": "address"
        }
      ],
      "name": "balanceOf",
      "outputs": [
        {
          "internalType": "uint256",
          "name": "",
          "type": "uint256"
        }
      ],
      "stateMutability": "view",
      "type": "function"
    },
    {
      "inputs": [],
      "name": "decimals",
      "outputs": [
        {
          "internalType": "uint256",
          "name": "",
          "type": "uint256"
        }
      ],
      "stateMutability": "view",
      "type": "function"
    },
    {
      "inputs": [],
      "name": "name",
      "outputs": [
        {
          "internalType": "string",
          "name": "",
          "type": "string"
        }
      ],
      "stateMutability": "view",
      "type": "function"
    },
    {
      "inputs": [],
      "name": "symbol",
      "outputs": [
        {
          "internalType": "string",
          "name": "",
          "type": "string"
        }
      ],
      "stateMutability": "view",
      "type": "function"
    },
    {
      "inputs": [],
      "name": "totalSupply",
      "outputs": [
        {
          "internalType": "uint256",
          "name": "",
          "type": "uint256"
        }
      ],
      "stateMutability": "view",
      "type": "function"
    },
    {
      "inputs": [
        {
          "internalType": "address",
          "name": "_from",
          "type": "address"
        },
        {
          "internalType": "address",
          "name": "_to",
          "type": "address"
        },
        {
          "internalType": "uint256",
          "name": "_value",
          "type": "uint256"
        }
      ],
      "name": "transferFrom",
      "outputs": [
        {
          "internalType": "bool",
          "name": "success",
          "type": "bool"
        }
      ],
      "stateMutability": "nonpayable",
      "type": "function"
    },
    {
      "inputs": [
        {
          "internalType": "address",
          "name": "_to",
          "type": "address"
        },
        {
          "internalType": "uint256",
          "name": "_value",
          "type": "uint256"
        }
      ],
      "name": "transferTo",
      "outputs": [
        {
          "internalType": "bool",
          "name": "success",
          "type": "bool"
        }
      ],
      "stateMutability": "nonpayable",
      "type": "function"
    }
  ],
  "bytecode": "0x60c0604052600b60808190526a243cb0b23ab69021b7b4b760a91b60a09081526200002e9160009190620000a9565b506040805180820190915260038082526248594360e81b60209092019182526200005b91600191620000a9565b5060126002553480156200006e57600080fd5b506002546200007f90600a62000198565b6200008e90620f424062000263565b600381905533600090815260046020526040902055620002d8565b828054620000b79062000285565b90600052602060002090601f016020900481019282620000db576000855562000126565b82601f10620000f657805160ff191683800117855562000126565b8280016001018555821562000126579182015b828111156200012657825182559160200191906001019062000109565b506200013492915062000138565b5090565b5b8082111562000134576000815560010162000139565b600181815b8085111562000190578160001904821115620001745762000174620002c2565b808516156200018257918102915b93841c939080029062000154565b509250929050565b6000620001a68383620001ad565b9392505050565b600082620001be575060016200025d565b81620001cd575060006200025d565b8160018114620001e65760028114620001f15762000211565b60019150506200025d565b60ff841115620002055762000205620002c2565b50506001821b6200025d565b5060208310610133831016604e8410600b841016171562000236575081810a6200025d565b6200024283836200014f565b8060001904821115620002595762000259620002c2565b0290505b92915050565b6000816000190483118215151615620002805762000280620002c2565b500290565b600181811c908216806200029a57607f821691505b60208210811415620002bc57634e487b7160e01b600052602260045260246000fd5b50919050565b634e487b7160e01b600052601160045260246000fd5b61065b80620002e86000396000f3fe608060405234801561001057600080fd5b50600436106100935760003560e01c80632ccb1b30116100665780632ccb1b3014610103578063313ce5671461011657806370a082311461011f57806395d89b411461013f578063dd62ed3e1461014757600080fd5b806306fdde0314610098578063095ea7b3146100b657806318160ddd146100d957806323b872dd146100f0575b600080fd5b6100a0610172565b6040516100ad9190610552565b60405180910390f35b6100c96100c4366004610529565b610200565b60405190151581526020016100ad565b6100e260035481565b6040519081526020016100ad565b6100c96100fe3660046104ee565b61025a565b6100c9610111366004610529565b610316565b6100e260025481565b6100e261012d3660046104a2565b60046020526000908152604090205481565b6100a06103a7565b6100e26101553660046104bc565b600560209081526000928352604080842090915290825290205481565b6000805461017f906105d4565b80601f01602080910402602001604051908101604052809291908181526020018280546101ab906105d4565b80156101f85780601f106101cd576101008083540402835291602001916101f8565b820191906000526020600020905b8154815290600101906020018083116101db57829003601f168201915b505050505081565b3360008181526005602090815260408083206001600160a01b038716808552925280832085905551919284927f8c5be1e5ebec7d5bd14f71427d1e84f3dd0314c0f7b2291e5b200ac8c7c3b925908590a450600192915050565b6001600160a01b03831660009081526004602052604081205482111561027f57600080fd5b6001600160a01b03841660009081526005602090815260408083203384529091529020548211156102af57600080fd5b6001600160a01b03841660009081526005602090815260408083203384529091529020546102dd90836103b4565b6001600160a01b038516600090815260056020908152604080832033845290915290205561030c8484846103c7565b5060019392505050565b336000908152600460205260408120548211156103935760405162461bcd60e51b815260206004820152603160248201527f564d20457863657074696f6e207768696c652070726f63657373696e67207472604482015270185b9cd858dd1a5bdb8e881c995d995c9d607a1b606482015260840160405180910390fd5b61039e3384846103c7565b50600192915050565b6001805461017f906105d4565b60006103c082846105bd565b9392505050565b6001600160a01b0383166000908152600460205260409020546103ea90826103b4565b6001600160a01b038085166000908152600460205260408082209390935590841681522054610419908261047a565b6001600160a01b0380841660008181526004602052604090819020939093559151908516907fddf252ad1be2c89b69c2b068fc378daa952ba7f163c4a11628f55a4df523b3ef9061046d9085815260200190565b60405180910390a3505050565b60006103c082846105a5565b80356001600160a01b038116811461049d57600080fd5b919050565b6000602082840312156104b3578081fd5b6103c082610486565b600080604083850312156104ce578081fd5b6104d783610486565b91506104e560208401610486565b90509250929050565b600080600060608486031215610502578081fd5b61050b84610486565b925061051960208501610486565b9150604084013590509250925092565b6000806040838503121561053b578182fd5b61054483610486565b946020939093013593505050565b6000602080835283518082850152825b8181101561057e57858101830151858201604001528201610562565b8181111561058f5783604083870101525b50601f01601f1916929092016040019392505050565b600082198211156105b8576105b861060f565b500190565b6000828210156105cf576105cf61060f565b500390565b600181811c908216806105e857607f821691505b6020821081141561060957634e487b7160e01b600052602260045260246000fd5b50919050565b634e487b7160e01b600052601160045260246000fdfea26469706673582212201eda9bcd7c7396d3c283b56ea6071101120054538362b6260048bd18d786a02f64736f6c63430008040033",
  "linkReferences": {},
  "deployedLinkReferences": {}
}